{"abi":[{"type":"constructor","inputs":[{"name":"rescueDelay","type":"uint32","internalType":"uint32"}],"stateMutability":"nonpayable"},{"type":"function","name":"FACTORY","inputs":[],"outputs":[{"name":"","type":"address","internalType":"address"}],"stateMutability":"view"},{"type":"function","name":"PROXY_BYTECODE_HASH","inputs":[],"outputs":[{"name":"","type":"bytes32","internalType":"bytes32"}],"stateMutability":"view"},{"type":"function","name":"RESCUE_DELAY","inputs":[],"outputs":[{"name":"","type":"uint256","internalType":"uint256"}],"stateMutability":"view"},{"type":"function","name":"cancel","inputs":[{"name":"immutables","type":"tuple","internalType":"struct IBaseEscrow.Immutables","components":[{"name":"orderHash","type":"bytes32","internalType":"bytes32"},{"name":"hashlock","type":"bytes32","internalType":"bytes32"},{"name":"maker","type":"uint256","internalType":"Address"},{"name":"taker","type":"uint256","internalType":"Address"},{"name":"token","type":"uint256","internalType":"Address"},{"name":"amount","type":"uint256","internalType":"uint256"},{"name":"safetyDeposit","type":"uint256","internalType":"uint256"},{"name":"timelocks","type":"uint256","internalType":"Timelocks"}]}],"outputs":[],"stateMutability":"nonpayable"},{"type":"function","name":"publicWithdraw","inputs":[{"name":"secret","type":"bytes32","internalType":"bytes32"},{"name":"immutables","type":"tuple","internalType":"struct IBaseEscrow.Immutables","components":[{"name":"orderHash","type":"bytes32","internalType":"bytes32"},{"name":"hashlock","type":"bytes32","internalType":"bytes32"},{"name":"maker","type":"uint256","internalType":"Address"},{"name":"taker","type":"uint256","internalType":"Address"},{"name":"token","type":"uint256","internalType":"Address"},{"name":"amount","type":"uint256","internalType":"uint256"},{"name":"safetyDeposit","type":"uint256","internalType":"uint256"},{"name":"timelocks","type":"uint256","internalType":"Timelocks"}]}],"outputs":[],"stateMutability":"nonpayable"},{"type":"function","name":"rescueFunds","inputs":[{"name":"token","type":"address","internalType":"address"},{"name":"amount","type":"uint256","internalType":"uint256"},{"name":"immutables","type":"tuple","internalType":"struct IBaseEscrow.Immutables","components":[{"name":"orderHash","type":"bytes32","internalType":"bytes32"},{"name":"hashlock","type":"bytes32","internalType":"bytes32"},{"name":"maker","type":"uint256","internalType":"Address"},{"name":"taker","type":"uint256","internalType":"Address"},{"name":"token","type":"uint256","internalType":"Address"},{"name":"amount","type":"uint256","internalType":"uint256"},{"name":"safetyDeposit","type":"uint256","internalType":"uint256"},{"name":"timelocks","type":"uint256","internalType":"Timelocks"}]}],"outputs":[],"stateMutability":"nonpayable"},{"type":"function","name":"withdraw","inputs":[{"name":"secret","type":"bytes32","internalType":"bytes32"},{"name":"immutables","type":"tuple","internalType":"struct IBaseEscrow.Immutables","components":[{"name":"orderHash","type":"bytes32","internalType":"bytes32"},{"name":"hashlock","type":"bytes32","internalType":"bytes32"},{"name":"maker","type":"uint256","internalType":"Address"},{"name":"taker","type":"uint256","internalType":"Address"},{"name":"token","type":"uint256","internalType":"Address"},{"name":"amount","type":"uint256","internalType":"uint256"},{"name":"safetyDeposit","type":"uint256","internalType":"uint256"},{"name":"timelocks","type":"uint256","internalType":"Timelocks"}]}],"outputs":[],"stateMutability":"nonpayable"},{"type":"event","name":"EscrowCancelled","inputs":[],"anonymous":false},{"type":"event","name":"FundsRescued","inputs":[{"name":"token","type":"address","indexed":false,"internalType":"address"},{"name":"amount","type":"uint256","indexed":false,"internalType":"uint256"}],"anonymous":false},{"type":"event","name":"Withdrawal","inputs":[{"name":"secret","type":"bytes32","indexed":false,"internalType":"bytes32"}],"anonymous":false},{"type":"error","name":"InvalidCaller","inputs":[]},{"type":"error","name":"InvalidImmutables","inputs":[]},{"type":"error","name":"InvalidSecret","inputs":[]},{"type":"error","name":"InvalidTime","inputs":[]},{"type":"error","name":"NativeTokenSendingFailure","inputs":[]},{"type":"error","name":"SafeTransferFailed","inputs":[]}],"bytecode":{"object":"0x60e0346100de57601f61094e38819003918201601f19168301916001600160401b038311848410176100e2578084926020946040528339810103126100de575163ffffffff81168091036100de573360a0526080526e5af43d82803e903d91602b57fd5bf360205230601152763d602d80600a3d3981f3363d3d373d3d3d363d730000003060881c175f52603760092060c05260405161085790816100f78239608051818181609e015261038d015260a051818181610156015281816103560152610506015260c05181818161012c0152818161032c01526104990152f35b5f80fd5b634e487b7160e01b5f52604160045260245ffdfe604060808152600480361015610013575f80fd5b5f3560e01c9081630af975581461052a578163233057031461052a5781632dd31000146104bc57816334862b6a146104645781634649088b1461028b57816390d3252f146100c5575063f56cd69c1461006a575f80fd5b346100c1575f7ffffffffffffffffffffffffffffffffffffffffffffffffffffffffffffffffc3601126100c157602090517f00000000000000000000000000000000000000000000000000000000000000008152f35b5f80fd5b82346100c157610100807ffffffffffffffffffffffffffffffffffffffffffffffffffffffffffffffffc3601126100c15773ffffffffffffffffffffffffffffffffffffffff91826064351691823303610263576055600b8592845181898237208451907f00000000000000000000000000000000000000000000000000000000000000008683015260208201527f000000000000000000000000000000000000000000000000000000000000000081520160ff81532016300361023b5760e43563ffffffff8160e01c9160c01c16810180911161020f5742106101e7576101b560a435836084358616610715565b6101c160c43533610747565b7f6e3be9294e58d10b9c8053cfd5e09871b67e442fe394d6b0870d336b9df984a95f80a1005b8390517f6f7eac26000000000000000000000000000000000000000000000000000000008152fd5b6011857f4e487b71000000000000000000000000000000000000000000000000000000005f525260245ffd5b8390517fa269484a000000000000000000000000000000000000000000000000000000008152fd5b8482517f48f5c3ed000000000000000000000000000000000000000000000000000000008152fd5b82346100c1576101407ffffffffffffffffffffffffffffffffffffffffffffffffffffffffffffffffc3601126100c15781359173ffffffffffffffffffffffffffffffffffffffff808416918285036100c15760243591610100807fffffffffffffffffffffffffffffffffffffffffffffffffffffffffffffffbc3601126100c1578160a43516330361043c57600b60559187518160448237208751907f00000000000000000000000000000000000000000000000000000000000000008983015260208201527f000000000000000000000000000000000000000000000000000000000000000081520160ff815320163003610415576101243560e01c7f00000000000000000000000000000000000000000000000000000000000000000142106103ee57506103e1817fc4474c2790e13695f6d2b6f1d8e164290b55370f87a542fd7711abe0a1bf40ac953390610715565b82519182526020820152a1005b83517f6f7eac26000000000000000000000000000000000000000000000000000000008152fd5b83517fa269484a000000000000000000000000000000000000000000000000000000008152fd5b8286517f48f5c3ed000000000000000000000000000000000000000000000000000000008152fd5b82346100c1575f7ffffffffffffffffffffffffffffffffffffffffffffffffffffffffffffffffc3601126100c157602090517f00000000000000000000000000000000000000000000000000000000000000008152f35b82346100c1575f7ffffffffffffffffffffffffffffffffffffffffffffffffffffffffffffffffc3601126100c1576020905173ffffffffffffffffffffffffffffffffffffffff7f0000000000000000000000000000000000000000000000000000000000000000168152f35b346100c15761054161053b36610543565b906105a2565b005b906101207ffffffffffffffffffffffffffffffffffffffffffffffffffffffffffffffffc8301126100c1576101007fffffffffffffffffffffffffffffffffffffffffffffffffffffffffffffffdc6004359301126100c157602490565b90815f5260205f20602082013580910361065657825f5260205f2003610656577f0ce781a18c10c8289803c7c4cfd532d797113c4b41c9701ffad7d0a632ac555b9161063960c060209373ffffffffffffffffffffffffffffffffffffffff80608083013516906040830135169080155f1461064257505f8080809360a0860135905af15061062f610680565b505b013533610747565b604051908152a1565b6106519160a084013591610789565b610631565b60046040517fabab6bd7000000000000000000000000000000000000000000000000000000008152fd5b3d156107105767ffffffffffffffff903d8281116106e35760405192601f82017fffffffffffffffffffffffffffffffffffffffffffffffffffffffffffffffe0908116603f01168401908111848210176106e35760405282523d5f602084013e565b7f4e487b71000000000000000000000000000000000000000000000000000000005f52604160045260245ffd5b606090565b73ffffffffffffffffffffffffffffffffffffffff1691908261073e5761073c9250610747565b565b61073c92610789565b5f80809381935af1610757610680565b501561075f57565b60046040517f8a0332d5000000000000000000000000000000000000000000000000000000008152fd5b9160446020925f92604051917fa9059cbb0000000000000000000000000000000000000000000000000000000083526004830152602482015282855af190816107ff575b50156107d557565b60046040517ffb7f5079000000000000000000000000000000000000000000000000000000008152fd5b90503d15610819575060015f5114601f3d11165b5f6107cd565b3b151561081356fea2646970667358221220aa125be8a7efccbbaaa37bc43302c6ba240ede4eca11a5a166f9f6def6ff613264736f6c63430008170033","linkReferences":{}},"methodIdentifiers":{"FACTORY()":"2dd31000","PROXY_BYTECODE_HASH()":"34862b6a","RESCUE_DELAY()":"f56cd69c","cancel((bytes32,bytes32,uint256,uint256,uint256,uint256,uint256,uint256))":"90d3252f","publicWithdraw(bytes32,(bytes32,bytes32,uint256,uint256,uint256,uint256,uint256,uint256))":"0af97558","rescueFunds(address,uint256,(bytes32,bytes32,uint256,uint256,uint256,uint256,uint256,uint256))":"4649088b","withdraw(bytes32,(bytes32,bytes32,uint256,uint256,uint256,uint256,uint256,uint256))":"23305703"},"storageLayout":{"storage":[],"types":{}},"id":3}