{"abi":[{"type":"constructor","inputs":[{"name":"limitOrderProtocol","type":"address","internalType":"address"},{"name":"feeToken","type":"address","internalType":"contract IERC20"},{"name":"accessToken","type":"address","internalType":"contract IERC20"},{"name":"owner","type":"address","internalType":"address"},{"name":"rescueDelaySrc","type":"uint32","internalType":"uint32"},{"name":"rescueDelayDst","type":"uint32","internalType":"uint32"}],"stateMutability":"nonpayable"},{"type":"function","name":"ESCROW_DST_IMPLEMENTATION","inputs":[],"outputs":[{"name":"","type":"address","internalType":"address"}],"stateMutability":"view"},{"type":"function","name":"ESCROW_SRC_IMPLEMENTATION","inputs":[],"outputs":[{"name":"","type":"address","internalType":"address"}],"stateMutability":"view"},{"type":"function","name":"FEE_BANK","inputs":[],"outputs":[{"name":"","type":"address","internalType":"contract IFeeBank"}],"stateMutability":"view"},{"type":"function","name":"addressOfEscrowDst","inputs":[{"name":"immutables","type":"tuple","internalType":"struct IBaseEscrow.Immutables","components":[{"name":"orderHash","type":"bytes32","internalType":"bytes32"},{"name":"hashlock","type":"bytes32","internalType":"bytes32"},{"name":"maker","type":"uint256","internalType":"Address"},{"name":"taker","type":"uint256","internalType":"Address"},{"name":"token","type":"uint256","internalType":"Address"},{"name":"amount","type":"uint256","internalType":"uint256"},{"name":"safetyDeposit","type":"uint256","internalType":"uint256"},{"name":"timelocks","type":"uint256","internalType":"Timelocks"}]}],"outputs":[{"name":"","type":"address","internalType":"address"}],"stateMutability":"view"},{"type":"function","name":"addressOfEscrowSrc","inputs":[{"name":"immutables","type":"tuple","internalType":"struct IBaseEscrow.Immutables","components":[{"name":"orderHash","type":"bytes32","internalType":"bytes32"},{"name":"hashlock","type":"bytes32","internalType":"bytes32"},{"name":"maker","type":"uint256","internalType":"Address"},{"name":"taker","type":"uint256","internalType":"Address"},{"name":"token","type":"uint256","internalType":"Address"},{"name":"amount","type":"uint256","internalType":"uint256"},{"name":"safetyDeposit","type":"uint256","internalType":"uint256"},{"name":"timelocks","type":"uint256","internalType":"Timelocks"}]}],"outputs":[{"name":"","type":"address","internalType":"address"}],"stateMutability":"view"},{"type":"function","name":"availableCredit","inputs":[{"name":"account","type":"address","internalType":"address"}],"outputs":[{"name":"","type":"uint256","internalType":"uint256"}],"stateMutability":"view"},{"type":"function","name":"cancel","inputs":[{"name":"escrowAddress","type":"address","internalType":"address"},{"name":"immutables","type":"tuple","internalType":"struct IBaseEscrow.Immutables","components":[{"name":"orderHash","type":"bytes32","internalType":"bytes32"},{"name":"hashlock","type":"bytes32","internalType":"bytes32"},{"name":"maker","type":"uint256","internalType":"Address"},{"name":"taker","type":"uint256","internalType":"Address"},{"name":"token","type":"uint256","internalType":"Address"},{"name":"amount","type":"uint256","internalType":"uint256"},{"name":"safetyDeposit","type":"uint256","internalType":"uint256"},{"name":"timelocks","type":"uint256","internalType":"Timelocks"}]}],"outputs":[],"stateMutability":"nonpayable"},{"type":"function","name":"createDstEscrow","inputs":[{"name":"dstImmutables","type":"tuple","internalType":"struct IBaseEscrow.Immutables","components":[{"name":"orderHash","type":"bytes32","internalType":"bytes32"},{"name":"hashlock","type":"bytes32","internalType":"bytes32"},{"name":"maker","type":"uint256","internalType":"Address"},{"name":"taker","type":"uint256","internalType":"Address"},{"name":"token","type":"uint256","internalType":"Address"},{"name":"amount","type":"uint256","internalType":"uint256"},{"name":"safetyDeposit","type":"uint256","internalType":"uint256"},{"name":"timelocks","type":"uint256","internalType":"Timelocks"}]},{"name":"srcCancellationTimestamp","type":"uint256","internalType":"uint256"}],"outputs":[],"stateMutability":"payable"},{"type":"function","name":"createSrcEscrow","inputs":[{"name":"srcImmutables","type":"tuple","internalType":"struct IBaseEscrow.Immutables","components":[{"name":"orderHash","type":"bytes32","internalType":"bytes32"},{"name":"hashlock","type":"bytes32","internalType":"bytes32"},{"name":"maker","type":"uint256","internalType":"Address"},{"name":"taker","type":"uint256","internalType":"Address"},{"name":"token","type":"uint256","internalType":"Address"},{"name":"amount","type":"uint256","internalType":"uint256"},{"name":"safetyDeposit","type":"uint256","internalType":"uint256"},{"name":"timelocks","type":"uint256","internalType":"Timelocks"}]}],"outputs":[{"name":"escrow","type":"address","internalType":"address"}],"stateMutability":"payable"},{"type":"function","name":"decreaseAvailableCredit","inputs":[{"name":"account","type":"address","internalType":"address"},{"name":"amount","type":"uint256","internalType":"uint256"}],"outputs":[{"name":"allowance","type":"uint256","internalType":"uint256"}],"stateMutability":"nonpayable"},{"type":"function","name":"getMakingAmount","inputs":[{"name":"order","type":"tuple","internalType":"struct IOrderMixin.Order","components":[{"name":"salt","type":"uint256","internalType":"uint256"},{"name":"maker","type":"uint256","internalType":"Address"},{"name":"receiver","type":"uint256","internalType":"Address"},{"name":"makerAsset","type":"uint256","internalType":"Address"},{"name":"takerAsset","type":"uint256","internalType":"Address"},{"name":"makingAmount","type":"uint256","internalType":"uint256"},{"name":"takingAmount","type":"uint256","internalType":"uint256"},{"name":"makerTraits","type":"uint256","internalType":"MakerTraits"}]},{"name":"","type":"bytes","internalType":"bytes"},{"name":"","type":"bytes32","internalType":"bytes32"},{"name":"","type":"address","internalType":"address"},{"name":"takingAmount","type":"uint256","internalType":"uint256"},{"name":"","type":"uint256","internalType":"uint256"},{"name":"extraData","type":"bytes","internalType":"bytes"}],"outputs":[{"name":"","type":"uint256","internalType":"uint256"}],"stateMutability":"view"},{"type":"function","name":"getTakingAmount","inputs":[{"name":"order","type":"tuple","internalType":"struct IOrderMixin.Order","components":[{"name":"salt","type":"uint256","internalType":"uint256"},{"name":"maker","type":"uint256","internalType":"Address"},{"name":"receiver","type":"uint256","internalType":"Address"},{"name":"makerAsset","type":"uint256","internalType":"Address"},{"name":"takerAsset","type":"uint256","internalType":"Address"},{"name":"makingAmount","type":"uint256","internalType":"uint256"},{"name":"takingAmount","type":"uint256","internalType":"uint256"},{"name":"makerTraits","type":"uint256","internalType":"MakerTraits"}]},{"name":"","type":"bytes","internalType":"bytes"},{"name":"","type":"bytes32","internalType":"bytes32"},{"name":"","type":"address","internalType":"address"},{"name":"makingAmount","type":"uint256","internalType":"uint256"},{"name":"","type":"uint256","internalType":"uint256"},{"name":"extraData","type":"bytes","internalType":"bytes"}],"outputs":[{"name":"","type":"uint256","internalType":"uint256"}],"stateMutability":"view"},{"type":"function","name":"increaseAvailableCredit","inputs":[{"name":"account","type":"address","internalType":"address"},{"name":"amount","type":"uint256","internalType":"uint256"}],"outputs":[{"name":"allowance","type":"uint256","internalType":"uint256"}],"stateMutability":"nonpayable"},{"type":"function","name":"lastValidated","inputs":[{"name":"key","type":"bytes32","internalType":"bytes32"}],"outputs":[{"name":"index","type":"uint256","internalType":"uint256"},{"name":"leaf","type":"bytes32","internalType":"bytes32"}],"stateMutability":"view"},{"type":"function","name":"postInteraction","inputs":[{"name":"order","type":"tuple","internalType":"struct IOrderMixin.Order","components":[{"name":"salt","type":"uint256","internalType":"uint256"},{"name":"maker","type":"uint256","internalType":"Address"},{"name":"receiver","type":"uint256","internalType":"Address"},{"name":"makerAsset","type":"uint256","internalType":"Address"},{"name":"takerAsset","type":"uint256","internalType":"Address"},{"name":"makingAmount","type":"uint256","internalType":"uint256"},{"name":"takingAmount","type":"uint256","internalType":"uint256"},{"name":"makerTraits","type":"uint256","internalType":"MakerTraits"}]},{"name":"extension","type":"bytes","internalType":"bytes"},{"name":"orderHash","type":"bytes32","internalType":"bytes32"},{"name":"taker","type":"address","internalType":"address"},{"name":"makingAmount","type":"uint256","internalType":"uint256"},{"name":"takingAmount","type":"uint256","internalType":"uint256"},{"name":"remainingMakingAmount","type":"uint256","internalType":"uint256"},{"name":"extraData","type":"bytes","internalType":"bytes"}],"outputs":[],"stateMutability":"nonpayable"},{"type":"function","name":"preInteraction","inputs":[{"name":"order","type":"tuple","internalType":"struct IOrderMixin.Order","components":[{"name":"salt","type":"uint256","internalType":"uint256"},{"name":"maker","type":"uint256","internalType":"Address"},{"name":"receiver","type":"uint256","internalType":"Address"},{"name":"makerAsset","type":"uint256","internalType":"Address"},{"name":"takerAsset","type":"uint256","internalType":"Address"},{"name":"makingAmount","type":"uint256","internalType":"uint256"},{"name":"takingAmount","type":"uint256","internalType":"uint256"},{"name":"makerTraits","type":"uint256","internalType":"MakerTraits"}]},{"name":"extension","type":"bytes","internalType":"bytes"},{"name":"orderHash","type":"bytes32","internalType":"bytes32"},{"name":"taker","type":"address","internalType":"address"},{"name":"makingAmount","type":"uint256","internalType":"uint256"},{"name":"takingAmount","type":"uint256","internalType":"uint256"},{"name":"remainingMakingAmount","type":"uint256","internalType":"uint256"},{"name":"extraData","type":"bytes","internalType":"bytes"}],"outputs":[],"stateMutability":"nonpayable"},{"type":"function","name":"takerInteraction","inputs":[{"name":"","type":"tuple","internalType":"struct IOrderMixin.Order","components":[{"name":"salt","type":"uint256","internalType":"uint256"},{"name":"maker","type":"uint256","internalType":"Address"},{"name":"receiver","type":"uint256","internalType":"Address"},{"name":"makerAsset","type":"uint256","internalType":"Address"},{"name":"takerAsset","type":"uint256","internalType":"Address"},{"name":"makingAmount","type":"uint256","internalType":"uint256"},{"name":"takingAmount","type":"uint256","internalType":"uint256"},{"name":"makerTraits","type":"uint256","internalType":"MakerTraits"}]},{"name":"extension","type":"bytes","internalType":"bytes"},{"name":"orderHash","type":"bytes32","internalType":"bytes32"},{"name":"","type":"address","internalType":"address"},{"name":"","type":"uint256","internalType":"uint256"},{"name":"","type":"uint256","internalType":"uint256"},{"name":"","type":"uint256","internalType":"uint256"},{"name":"extraData","type":"bytes","internalType":"bytes"}],"outputs":[],"stateMutability":"nonpayable"},{"type":"function","name":"withdraw","inputs":[{"name":"escrowAddress","type":"address","internalType":"address"},{"name":"secret","type":"bytes32","internalType":"bytes32"},{"name":"immutables","type":"tuple","internalType":"struct IBaseEscrow.Immutables","components":[{"name":"orderHash","type":"bytes32","internalType":"bytes32"},{"name":"hashlock","type":"bytes32","internalType":"bytes32"},{"name":"maker","type":"uint256","internalType":"Address"},{"name":"taker","type":"uint256","internalType":"Address"},{"name":"token","type":"uint256","internalType":"Address"},{"name":"amount","type":"uint256","internalType":"uint256"},{"name":"safetyDeposit","type":"uint256","internalType":"uint256"},{"name":"timelocks","type":"uint256","internalType":"Timelocks"}]}],"outputs":[],"stateMutability":"nonpayable"},{"type":"event","name":"DstEscrowCreated","inputs":[{"name":"escrow","type":"address","indexed":false,"internalType":"address"},{"name":"hashlock","type":"bytes32","indexed":false,"internalType":"bytes32"},{"name":"taker","type":"uint256","indexed":false,"internalType":"Address"}],"anonymous":false},{"type":"event","name":"SrcEscrowCreated","inputs":[{"name":"srcImmutables","type":"tuple","indexed":false,"internalType":"struct IBaseEscrow.Immutables","components":[{"name":"orderHash","type":"bytes32","internalType":"bytes32"},{"name":"hashlock","type":"bytes32","internalType":"bytes32"},{"name":"maker","type":"uint256","internalType":"Address"},{"name":"taker","type":"uint256","internalType":"Address"},{"name":"token","type":"uint256","internalType":"Address"},{"name":"amount","type":"uint256","internalType":"uint256"},{"name":"safetyDeposit","type":"uint256","internalType":"uint256"},{"name":"timelocks","type":"uint256","internalType":"Timelocks"}]},{"name":"dstImmutablesComplement","type":"tuple","indexed":false,"internalType":"struct IEscrowFactory.DstImmutablesComplement","components":[{"name":"maker","type":"uint256","internalType":"Address"},{"name":"amount","type":"uint256","internalType":"uint256"},{"name":"token","type":"uint256","internalType":"Address"},{"name":"safetyDeposit","type":"uint256","internalType":"uint256"},{"name":"chainId","type":"uint256","internalType":"uint256"}]}],"anonymous":false},{"type":"error","name":"AccessDenied","inputs":[]},{"type":"error","name":"FailedDeployment","inputs":[]},{"type":"error","name":"InsufficientBalance","inputs":[{"name":"balance","type":"uint256","internalType":"uint256"},{"name":"needed","type":"uint256","internalType":"uint256"}]},{"type":"error","name":"InsufficientEscrowBalance","inputs":[]},{"type":"error","name":"InvalidCreationTime","inputs":[]},{"type":"error","name":"InvalidPartialFill","inputs":[]},{"type":"error","name":"InvalidProof","inputs":[]},{"type":"error","name":"InvalidSecretsAmount","inputs":[]},{"type":"error","name":"NotEnoughCredit","inputs":[]},{"type":"error","name":"OnlyFeeBankAccess","inputs":[]},{"type":"error","name":"OnlyLimitOrderProtocol","inputs":[]},{"type":"error","name":"ResolverCanNotFillOrder","inputs":[]},{"type":"error","name":"SafeTransferFromFailed","inputs":[]}],"bytecode":{"object":"0x61018034620002ad576001600160401b0390601f62004f3f38819003918201601f1916830191908483118484101762000285578160c09285926040958652833981010312620002ad576200005382620002b1565b926200006260208401620002b1565b9362000070838501620002b1565b6200009b60a06200008460608801620002b1565b966200009360808201620002c6565b5001620002c6565b958260805284519061121f808301838110878211176200028557606092849262003d2084393082526001600160a01b039081166020830152988916888201520301905ff08015620002a357851660a05260c05260e0528151610c0d8082019582871084881117620002855763ffffffff839160209362003113843916968781520301905ff09384156200029957836101009516855282519161094e90818401908482109082111762000285576020928492620027c5843981520301905ff09182156200027b578061012093168352620001fb620001b382865116763d602d80600a3d3981f3363d3d373d3d3d363d73000000906e5af43d82803e903d91602b57fd5bf36020528060115260881c175f52603760092090565b91610140928352845116763d602d80600a3d3981f3363d3d373d3d3d363d73000000906e5af43d82803e903d91602b57fd5bf36020528060115260881c175f52603760092090565b9161016092835251926124ec9485620002d98639608051858181610cfb0152611bd3015260a051858181610b790152818161193401526119ca015260c051856117bb015260e051856106ed01525184818161050a01528181610c400152611244015251838181610237015261069b0152518261012a0152518161062a0152f35b50513d5f823e3d90fd5b634e487b7160e01b5f52604160045260245ffd5b82513d5f823e3d90fd5b84513d5f823e3d90fd5b5f80fd5b51906001600160a01b0382168203620002ad57565b519063ffffffff82168203620002ad5756fe60a0806040526004361015610012575f80fd5b5f6080525f3560e01c9081630986bdd514611ba4575080631d9671c314611b1a5780632c3c9a37146119ee5780632ce26aeb1461197e5780633ee5ef1f146118e4578063462ebde214610ccc5780635886216f14610c645780637040f17314610bf457806385eda2de14610b29578063a4fc705a14610a00578063acf4ce5c146109ab578063adf38ba1146106bf578063ba5511771461064f578063be58e91c146105e6578063c3a2884114610499578063d7ff8a80146103b9578063dea024e4146101735763fb6bd47e146100e6575f80fd5b3461016d57610100807ffffffffffffffffffffffffffffffffffffffffffffffffffffffffffffffffc36011261016d5761014f60209160405181600482372030907f0000000000000000000000000000000000000000000000000000000000000000906122ca565b73ffffffffffffffffffffffffffffffffffffffff60405191168152f35b60805180fd5b7ffffffffffffffffffffffffffffffffffffffffffffffffffffffffffffffffc3601610120811261016d5761010080911261016d5773ffffffffffffffffffffffffffffffffffffffff806084351660c43592811593846103a7575b340361037d576101df36611e9e565b9060e0820180517bffffffffffffffffffffffffffffffffffffffffffffffffffffffff4260e01b911617809152610228610104359163ffffffff8160c01c169060e01c611dda565b116103535761025b90349083207f0000000000000000000000000000000000000000000000000000000000000000612300565b93156102a5575b7fc30e111dcc74fddc2c3a4d98ffb97adec4485c0a687946bf5b22c2a99c7ff96d606085856040519116815260243560208201526064356040820152a160805180f35b60a001516040517f23b872dd00000000000000000000000000000000000000000000000000000000815233600482015260248101859052604481019190915260805160209160649082855af1908161032f575b5015610305578280610262565b60046040517ff4059071000000000000000000000000000000000000000000000000000000008152fd5b90503d1561034b575060016080515114601f3d11165b836102f8565b3b1515610345565b60046040517ff4840e96000000000000000000000000000000000000000000000000000000008152fd5b60046040517f34f5151d000000000000000000000000000000000000000000000000000000008152fd5b6103b49060a43590611dda565b6101d0565b3461016d576103d96103ca36611d21565b95509350509495935050611f4c565b60c08301359162989680918201908183116104685760a0916103fa91611dc7565b93013581810291818304149015171561046857610418818484612013565b9080156104375760209361042f9309151590611dda565b604051908152f35b7f4e487b71000000000000000000000000000000000000000000000000000000006080515260126004526024608051fd5b7f4e487b71000000000000000000000000000000000000000000000000000000006080515260116004526024608051fd5b610100807ffffffffffffffffffffffffffffffffffffffffffffffffffffffffffffffffc36011261016d5760c43580340361037d577f0e534c62f0afd2fa0f0fa71198e8aa2d549f24daf2bb47de0d5486c7ce9288ca6101a06020936105c761052e348361050736611e9e565b207f0000000000000000000000000000000000000000000000000000000000000000612300565b6040519095604435939060a43560843561054785611e34565b868552818b86015280604086015282606086015260805160808601526040519660043588526024358c89015260408801526064356060880152608087015260a086015260c085015260e43560e085015283019060808091805184526020810151602085015260408101516040850152606081015160608501520151910152565ba173ffffffffffffffffffffffffffffffffffffffff60405191168152f35b3461016d57610100807ffffffffffffffffffffffffffffffffffffffffffffffffffffffffffffffffc36011261016d5761014f60209160405181600482372030907f0000000000000000000000000000000000000000000000000000000000000000906122ca565b3461016d576080517ffffffffffffffffffffffffffffffffffffffffffffffffffffffffffffffffc36011261016d57602060405173ffffffffffffffffffffffffffffffffffffffff7f0000000000000000000000000000000000000000000000000000000000000000168152f35b3461016d576106cd36611c74565b50975050505050919073ffffffffffffffffffffffffffffffffffffffff7f00000000000000000000000000000000000000000000000000000000000000001633036109815761071c9161224b565b907fffffffffffffffffffffffffffffffffffffffffffffffffffffffffffffff607dffffffffffffffffffffffffffffffffffffffffffffffffffffffffffff92839201013516604051926020936107d9816107ad85888301958690603e927fffffffffffffffffffffffffffffffffffffffffffffffffffffffffffff000091835260101b1660208201520190565b037fffffffffffffffffffffffffffffffffffffffffffffffffffffffffffffffe08101835282611e50565b5190209084357fffffffffffffffffffffffffffffffffffffffffffffffffffffffffffffffe18636030181121561016d5767ffffffffffffffff93908601803585811161016d576005918160051b36038882011361016d576040888a013599013596604051898101917fffffffffffffffff0000000000000000000000000000000000000000000000008c60c01b16835289602883015260288252606082019082821090821117610954576040959493955251902092608051925b828410610910575050505016036108e65760018401809411610468576001928391604051956108c387611dfb565b865281860193845260805152526040608051209251835551910155608051608051f35b60046040517f09bde339000000000000000000000000000000000000000000000000000000008152fd5b92939192909184821b83018a013590818110156109405760805152895260016040608051205b9401929190610895565b906080515289526001604060805120610936565b7f4e487b71000000000000000000000000000000000000000000000000000000005f52604160045260245ffd5b60046040517f4ca88867000000000000000000000000000000000000000000000000000000008152fd5b3461016d5760207ffffffffffffffffffffffffffffffffffffffffffffffffffffffffffffffffc36011261016d57600435608051526001602052604080608051206001815491015482519182526020820152f35b3461016d576101207ffffffffffffffffffffffffffffffffffffffffffffffffffffffffffffffffc36011261016d57610a38611c51565b6101007fffffffffffffffffffffffffffffffffffffffffffffffffffffffffffffffdc36011261016d5773ffffffffffffffffffffffffffffffffffffffff16803b1561016d57604051907f90d3252f000000000000000000000000000000000000000000000000000000008252602435600483015260443560248301526064356044830152608435606483015260a435608483015260c43560a483015260e43560c483015281610104803560e48301528160805193608051905af18015610b1c57610b06575b60805180f35b610b0f90611de7565b60805161016d5780610b00565b6040513d608051823e3d90fd5b3461016d5760407ffffffffffffffffffffffffffffffffffffffffffffffffffffffffffffffffc36011261016d57610b60611c51565b73ffffffffffffffffffffffffffffffffffffffff90817f0000000000000000000000000000000000000000000000000000000000000000163303610bca5716608051526080516020526020604060805120610bbf6024358254611e91565b809155604051908152f35b60046040517fa4544199000000000000000000000000000000000000000000000000000000008152fd5b3461016d576080517ffffffffffffffffffffffffffffffffffffffffffffffffffffffffffffffffc36011261016d57602060405173ffffffffffffffffffffffffffffffffffffffff7f0000000000000000000000000000000000000000000000000000000000000000168152f35b3461016d5760207ffffffffffffffffffffffffffffffffffffffffffffffffffffffffffffffffc36011261016d5773ffffffffffffffffffffffffffffffffffffffff610cb0611c51565b1660805152608051602052602060406080512054604051908152f35b3461016d57610cda36611c74565b9491939773ffffffffffffffffffffffffffffffffffffffff9997919396997f00000000000000000000000000000000000000000000000000000000000000001633036118ba57857fffffffffffffffffffffffffffffffffffffffffffffffffffffffffffffff60810111610468577fffffffffffffffffffffffffffffffffffffffffffffffffffffffffffffff60860190847fffffffffffffffffffffffffffffffffffffffffffffffffffffffffffffff5f88018310610468577f010000000000000000000000000000000000000000000000000000000000000080610e097fffffffffffffffffffffffffffffffffffffffffffffffffffffffffffffff5f8b017fffffffffffffffffffffffffffffffffffffffffffffffffffffffffffffff608c018a61239d565b35161493610e5c7fffffffffffffffffffffffffffffffffffffffffffffffffffffffffffffff5f8a017fffffffffffffffffffffffffffffffffffffffffffffffffffffffffffffff608b018961239d565b608051903560fb1c9580611826575b8560041161016d57833560e01c7ffffffffffffffffffffffffffffffffffffffffffffffffffffffffffffffffc8701600c89021161016d57610eb78989600c810260048901856123d6565b1561168a575b50505060147ffffffffffffffffffffffffffffffffffffffffffffffffffffffffffffffffc600c870286030111611414575b505050508285017fffffffffffffffffffffffffffffffffffffffffffffffffffffffffffffff6001905060e08701357f400000000000000000000000000000000000000000000000000000000000000016156113af57358060f01c600281106113855760408051602081018c815260109490941b7fffffffffffffffffffffffffffffffffffffffffffffffffffffffffffff00001691810191909152610fdd9290610fa081605e81016107ad565b519020608051526001602052604060805120906020604051610fc181611dfb565b6001845494858352015491829101529560a08a0135908b612195565b1561135b577f0e534c62f0afd2fa0f0fa71198e8aa2d549f24daf2bb47de0d5486c7ce9288ca9373ffffffffffffffffffffffffffffffffffffffff7fffffffffffffffffffffffffffffffffffffffffffffffffffffffffffffff80926101a0955b6040519b61104d8d611e17565b8c5260208c0152602089013560408c01521660608a0152606087013560808a01528760a08a01527fffffffffffffffffffffffffffffffffffffffffffffffffffffffffffffffc0818401013560801c60c08a015260e08901924260e01b7bffffffffffffffffffffffffffffffffffffffffffffffffffffffff7fffffffffffffffffffffffffffffffffffffffffffffffffffffffffffffffe084840101351617845260408801356080515073ffffffffffffffffffffffffffffffffffffffff8116155f1461135557506020880135965b6040519761112e89611e34565b885260208801527fffffffffffffffffffffffffffffffffffffffffffffffffffffffffffffffa0828201013560408801526fffffffffffffffffffffffffffffffff7fffffffffffffffffffffffffffffffffffffffffffffffffffffffffffffffc08383010135166060880152010135608085015260405190875182526020880151602083015260408801516040830152606088015160608301526080880151608083015260a088015160a083015260c088015160c08301525160e0820152611227610100948583019060808091805184526020810151602085015260408101516040850152606081015160608501520151910152565ba18320763d602d80600a3d3981f3363d3d373d3d3d363d730000007f00000000000000000000000000000000000000000000000000000000000000006e5af43d82803e903d91602b57fd5bf36020528060115260881c175f52603760095ff59273ffffffffffffffffffffffffffffffffffffffff84161561132b5760c08431910151119283156112c0575b50505061037d5760805180f35b60209293507f70a08231000000000000000000000000000000000000000000000000000000006080515260045260246080519173ffffffffffffffffffffffffffffffffffffffff6060608051920135165afa60805151901560203d1017610b1c57108180806112b3565b60046040517fb06ebf3d000000000000000000000000000000000000000000000000000000008152fd5b96611121565b60046040517feab3a174000000000000000000000000000000000000000000000000000000008152fd5b60046040517f10d629d3000000000000000000000000000000000000000000000000000000008152fd5b6101a093509373ffffffffffffffffffffffffffffffffffffffff7fffffffffffffffffffffffffffffffffffffffffffffffffffffffffffffff80927f0e534c62f0afd2fa0f0fa71198e8aa2d549f24daf2bb47de0d5486c7ce9288ca9635611040565b7fffffffffffffffffffffffffffffffffffffffff000000000000000000000000600c86028381016004013582811694929160149088037ffffffffffffffffffffffffffffffffffffffffffffffffffffffffffffffffc011061166d575b5050600c860285037ffffffffffffffffffffffffffffffffffffffffffffffffffffffffffffffffc81017ffffffffffffffffffffffffffffffffffffffffffffffffffffffffffffffffb90910111610468577ffffffffffffffffffffffffffffffffffffffffffffffffffffffffffffffffb600c870286030160141161016d578260601c3b1561016d578c958e8d92604051988997889687967f462ebde2000000000000000000000000000000000000000000000000000000008852803560048901526020810135602489015260408101356044890152606081013560648901526080810135608489015260a081013560a489015260c081013560c489015260e0013560e488015261010487016101e090526101e487019061159792612478565b9261012486015273ffffffffffffffffffffffffffffffffffffffff8b166101448601526101648501528d6101848501528b6101a48501528382037ffffffffffffffffffffffffffffffffffffffffffffffffffffffffffffffffc016101c485015260805197600c840290037fffffffffffffffffffffffffffffffffffffffffffffffffffffffffffffffe70192600c02016018019161163892612478565b03916080519060601c5af18015610b1c57611657575b80808080610ef0565b61166090611de7565b60805161016d578861164e565b600c8802870360140360040160031b82901b161692508e80611473565b4210801561175b575b611731576116a3575b8080610ebd565b801561169c5773ffffffffffffffffffffffffffffffffffffffff871660805152608051602052604060805120548181106117075773ffffffffffffffffffffffffffffffffffffffff88166080515260805160205203604060805120558d61169c565b60046040517fa7fd3792000000000000000000000000000000000000000000000000000000008152fd5b60046040517ff25114a6000000000000000000000000000000000000000000000000000000008152fd5b506040517f70a0823100000000000000000000000000000000000000000000000000000000815273ffffffffffffffffffffffffffffffffffffffff8916600482015260208160248173ffffffffffffffffffffffffffffffffffffffff7f0000000000000000000000000000000000000000000000000000000000000000165afa908115610b1c57608051916117f4575b5015611693565b90506020813d60201161181e575b8161180f60209383611e50565b8101031261016d57515f6117ed565b3d9150611802565b94505090507fffffffffffffffffffffffffffffffffffffffffffffffffffffffffffffff60880160041161016d57853560e01c66038d7ea4c68000908082810204821481151715610468576118868d61188b9360a08f01359302611dc7565b611f15565b9060048701917fffffffffffffffffffffffffffffffffffffffffffffffffffffffffffffff5c8a0194610e6b565b60046040517fd25aa106000000000000000000000000000000000000000000000000000000008152fd5b3461016d5760407ffffffffffffffffffffffffffffffffffffffffffffffffffffffffffffffffc36011261016d5761191b611c51565b73ffffffffffffffffffffffffffffffffffffffff90817f0000000000000000000000000000000000000000000000000000000000000000163303610bca5716608051526080516020526020604060805120602435815401809155604051908152f35b3461016d576080517ffffffffffffffffffffffffffffffffffffffffffffffffffffffffffffffffc36011261016d57602060405173ffffffffffffffffffffffffffffffffffffffff7f0000000000000000000000000000000000000000000000000000000000000000168152f35b34611b16576101407ffffffffffffffffffffffffffffffffffffffffffffffffffffffffffffffffc360112611b1657611a26611c51565b6101007fffffffffffffffffffffffffffffffffffffffffffffffffffffffffffffffbc360112611b165773ffffffffffffffffffffffffffffffffffffffff16803b15611b16575f60405180927f23305703000000000000000000000000000000000000000000000000000000008252602435600483015260443560248301526064356044830152608435606483015260a435608483015260c43560a483015260e43560c4830152818361010492833560e4840152610124938435908401525af18015611b0b57611af85760805180f35b611b0190611de7565b5f60805280610b00565b6040513d5f823e3d90fd5b5f80fd5b34611b1657611b39611b2b36611d21565b955093505095935050611f4c565b90629896809182840293808504841490151715611b77578201809211611b775760209260a0611b6f61042f9460c0850135611dc7565b920135612013565b7f4e487b71000000000000000000000000000000000000000000000000000000005f52601160045260245ffd5b34611b1657611bb236611c74565b5050505050505050505073ffffffffffffffffffffffffffffffffffffffff7f0000000000000000000000000000000000000000000000000000000000000000163303611bfb57005b807fd25aa1060000000000000000000000000000000000000000000000000000000060049252fd5b9181601f84011215611b165782359167ffffffffffffffff8311611b165760208381860195010111611b1657565b6004359073ffffffffffffffffffffffffffffffffffffffff82168203611b1657565b7ffffffffffffffffffffffffffffffffffffffffffffffffffffffffffffffffc81016101e08112611b165761010013611b165760049167ffffffffffffffff61010435818111611b165783611ccc91600401611c23565b9390939261012435926101443573ffffffffffffffffffffffffffffffffffffffff81168103611b165792610164359261018435926101a435926101c435918211611b1657611d1d91600401611c23565b9091565b907ffffffffffffffffffffffffffffffffffffffffffffffffffffffffffffffffc82016101c08112611b165761010013611b165760049167ffffffffffffffff9061010435828111611b165781611d7b91600401611c23565b9390939261012435926101443573ffffffffffffffffffffffffffffffffffffffff81168103611b165792610164359261018435926101a435918211611b1657611d1d91600401611c23565b81810292918115918404141715611b7757565b91908201809211611b7757565b67ffffffffffffffff811161095457604052565b6040810190811067ffffffffffffffff82111761095457604052565b610100810190811067ffffffffffffffff82111761095457604052565b60a0810190811067ffffffffffffffff82111761095457604052565b90601f7fffffffffffffffffffffffffffffffffffffffffffffffffffffffffffffffe0910116810190811067ffffffffffffffff82111761095457604052565b91908203918211611b7757565b7ffffffffffffffffffffffffffffffffffffffffffffffffffffffffffffffffc610100910112611b165760405190611ed682611e17565b6004358252602435602083015260443560408301526064356060830152608435608083015260a43560a083015260c43560c083015260e43560e0830152565b8115611f1f570490565b7f4e487b71000000000000000000000000000000000000000000000000000000005f52601260045260245ffd5b9080600311611b1657813560e81c81600711611b1657600383013560e01c908015801561200b575b15611ff45750505f915b81600b11611b1657600781013560e01c82600e11611b165782601111611b16577fffffffffffffffffffffffffffffffffffffffffffffffffffffffffffffffef611fe29301916011810191600b600e83013560e81c92013560e81c8101906120d4565b81811115611fee570390565b50505f90565b620f424091612004914802611f15565b0491611f7e565b508115611f74565b91818302917fffffffffffffffffffffffffffffffffffffffffffffffffffffffffffffffff818509938380861095039480860395146120c457848311156120a55790829109815f038216809204600280826003021880830282030280830282030280830282030280830282030280830282030280920290030293600183805f03040190848311900302920304170290565b826120bd5760125b634e487b715f526020526024601cfd5b60116120ad565b5050906120d19250611f15565b90565b90919392814211155f146120e9575050505090565b829394919242101561218c57849291925b61211057506120d1935082039142900302611f15565b90600390858211611b1657823560e81c90600592878411611b165784013560f01c8101948542111561216d575050907ffffffffffffffffffffffffffffffffffffffffffffffffffffffffffffffffb91939201940193846120fa565b9250936120d19650809550849193500393429003029142030201611f15565b50505050505f90565b9291906121ab846121a68385611e91565b611dda565b907fffffffffffffffffffffffffffffffffffffffffffffffffffffffffffffffff91828101908111611b775783611886866121e693611dc7565b948103612200575050505060028101809111611b77571490565b80830361221b575b5050505060018101809111611b77571490565b6122259083611e91565b908101908111611b775761223c9261188691611dc7565b8114611fee575f808080612208565b919091602083106122c2578035907fffffffffffffffffffffffffffffffffffffffffffffffffffffffffffffffe063ffffffff8360c01c169260e01c9401841161229a578101602001920390565b7f9605a010000000000000000000000000000000000000000000000000000000005f5260045ffd5b505f91508190565b60559173ffffffffffffffffffffffffffffffffffffffff93600b92604051926040840152602083015281520160ff8153201690565b91909181471061236557603791763d602d80600a3d3981f3363d3d373d3d3d363d730000006009926e5af43d82803e903d91602b57fd5bf36020528060115260881c175f52f59073ffffffffffffffffffffffffffffffffffffffff82161561132b57565b6044824790604051917fcf47918100000000000000000000000000000000000000000000000000000000835260048301526024820152fd5b908210156123a9570190565b7f4e487b71000000000000000000000000000000000000000000000000000000005f52603260045260245ffd5b9192909369ffffffffffffffffffff16925f925b8284106123fb575050505050505f90565b600a90828211611b1657600c91838311611b165787013560f01c0195803560b01c860361242e5750505050505042101590565b959293949542841161246d5701949360010192917ffffffffffffffffffffffffffffffffffffffffffffffffffffffffffffffff491909101906123ea565b505050505050505f90565b601f82602094937fffffffffffffffffffffffffffffffffffffffffffffffffffffffffffffffe093818652868601375f858286010152011601019056fea264697066735822122080c6dd254c6378428cffbca8c906f5b2679cf77924173cae7c0d290e4c675e2164736f6c6343000817003360e0346100de57601f61094e38819003918201601f19168301916001600160401b038311848410176100e2578084926020946040528339810103126100de575163ffffffff81168091036100de573360a0526080526e5af43d82803e903d91602b57fd5bf360205230601152763d602d80600a3d3981f3363d3d373d3d3d363d730000003060881c175f52603760092060c05260405161085790816100f78239608051818181609e015261038d015260a051818181610156015281816103560152610506015260c05181818161012c0152818161032c01526104990152f35b5f80fd5b634e487b7160e01b5f52604160045260245ffdfe604060808152600480361015610013575f80fd5b5f3560e01c9081630af975581461052a578163233057031461052a5781632dd31000146104bc57816334862b6a146104645781634649088b1461028b57816390d3252f146100c5575063f56cd69c1461006a575f80fd5b346100c1575f7ffffffffffffffffffffffffffffffffffffffffffffffffffffffffffffffffc3601126100c157602090517f00000000000000000000000000000000000000000000000000000000000000008152f35b5f80fd5b82346100c157610100807ffffffffffffffffffffffffffffffffffffffffffffffffffffffffffffffffc3601126100c15773ffffffffffffffffffffffffffffffffffffffff91826064351691823303610263576055600b8592845181898237208451907f00000000000000000000000000000000000000000000000000000000000000008683015260208201527f000000000000000000000000000000000000000000000000000000000000000081520160ff81532016300361023b5760e43563ffffffff8160e01c9160c01c16810180911161020f5742106101e7576101b560a435836084358616610715565b6101c160c43533610747565b7f6e3be9294e58d10b9c8053cfd5e09871b67e442fe394d6b0870d336b9df984a95f80a1005b8390517f6f7eac26000000000000000000000000000000000000000000000000000000008152fd5b6011857f4e487b71000000000000000000000000000000000000000000000000000000005f525260245ffd5b8390517fa269484a000000000000000000000000000000000000000000000000000000008152fd5b8482517f48f5c3ed000000000000000000000000000000000000000000000000000000008152fd5b82346100c1576101407ffffffffffffffffffffffffffffffffffffffffffffffffffffffffffffffffc3601126100c15781359173ffffffffffffffffffffffffffffffffffffffff808416918285036100c15760243591610100807fffffffffffffffffffffffffffffffffffffffffffffffffffffffffffffffbc3601126100c1578160a43516330361043c57600b60559187518160448237208751907f00000000000000000000000000000000000000000000000000000000000000008983015260208201527f000000000000000000000000000000000000000000000000000000000000000081520160ff815320163003610415576101243560e01c7f00000000000000000000000000000000000000000000000000000000000000000142106103ee57506103e1817fc4474c2790e13695f6d2b6f1d8e164290b55370f87a542fd7711abe0a1bf40ac953390610715565b82519182526020820152a1005b83517f6f7eac26000000000000000000000000000000000000000000000000000000008152fd5b83517fa269484a000000000000000000000000000000000000000000000000000000008152fd5b8286517f48f5c3ed000000000000000000000000000000000000000000000000000000008152fd5b82346100c1575f7ffffffffffffffffffffffffffffffffffffffffffffffffffffffffffffffffc3601126100c157602090517f00000000000000000000000000000000000000000000000000000000000000008152f35b82346100c1575f7ffffffffffffffffffffffffffffffffffffffffffffffffffffffffffffffffc3601126100c1576020905173ffffffffffffffffffffffffffffffffffffffff7f0000000000000000000000000000000000000000000000000000000000000000168152f35b346100c15761054161053b36610543565b906105a2565b005b906101207ffffffffffffffffffffffffffffffffffffffffffffffffffffffffffffffffc8301126100c1576101007fffffffffffffffffffffffffffffffffffffffffffffffffffffffffffffffdc6004359301126100c157602490565b90815f5260205f20602082013580910361065657825f5260205f2003610656577f0ce781a18c10c8289803c7c4cfd532d797113c4b41c9701ffad7d0a632ac555b9161063960c060209373ffffffffffffffffffffffffffffffffffffffff80608083013516906040830135169080155f1461064257505f8080809360a0860135905af15061062f610680565b505b013533610747565b604051908152a1565b6106519160a084013591610789565b610631565b60046040517fabab6bd7000000000000000000000000000000000000000000000000000000008152fd5b3d156107105767ffffffffffffffff903d8281116106e35760405192601f82017fffffffffffffffffffffffffffffffffffffffffffffffffffffffffffffffe0908116603f01168401908111848210176106e35760405282523d5f602084013e565b7f4e487b71000000000000000000000000000000000000000000000000000000005f52604160045260245ffd5b606090565b73ffffffffffffffffffffffffffffffffffffffff1691908261073e5761073c9250610747565b565b61073c92610789565b5f80809381935af1610757610680565b501561075f57565b60046040517f8a0332d5000000000000000000000000000000000000000000000000000000008152fd5b9160446020925f92604051917fa9059cbb0000000000000000000000000000000000000000000000000000000083526004830152602482015282855af190816107ff575b50156107d557565b60046040517ffb7f5079000000000000000000000000000000000000000000000000000000008152fd5b90503d15610819575060015f5114601f3d11165b5f6107cd565b3b151561081356fea2646970667358221220aa125be8a7efccbbaaa37bc43302c6ba240ede4eca11a5a166f9f6def6ff613264736f6c6343000817003360e0346100de57601f610c0d38819003918201601f19168301916001600160401b038311848410176100e2578084926020946040528339810103126100de575163ffffffff81168091036100de573360a0526080526e5af43d82803e903d91602b57fd5bf360205230601152763d602d80600a3d3981f3363d3d373d3d3d363d730000003060881c175f52603760092060c052604051610b1690816100f7823960805181818160b70152610529015260a0518181816104f2015281816106b80152610922015260c0518181816104c80152818161064b01526108f70152f35b5f80fd5b634e487b7160e01b5f52604160045260245ffdfe6080604090808252600480361015610015575f80fd5b5f3560e01c9182630af97558146107b75750816323305703146106dc5781632dd310001461066e57816334862b6a146106165781634649088b146104295781636c10c0c8146102f257816390d3252f146101e6578163daff233e146100de575063f56cd69c14610083575f80fd5b346100da575f7ffffffffffffffffffffffffffffffffffffffffffffffffffffffffffffffffc3601126100da57602090517f00000000000000000000000000000000000000000000000000000000000000008152f35b5f80fd5b82346100da576101007ffffffffffffffffffffffffffffffffffffffffffffffffffffffffffffffffc3601126100da5760e43563ffffffff8160e01c9160601c1681018091116101ba574210610194576101376108cb565b61016273ffffffffffffffffffffffffffffffffffffffff60a435908060443516906084351661097c565b61016e60c43533610a14565b7f6e3be9294e58d10b9c8053cfd5e09871b67e442fe394d6b0870d336b9df984a95f80a1005b517f6f7eac26000000000000000000000000000000000000000000000000000000008152fd5b6011837f4e487b71000000000000000000000000000000000000000000000000000000005f525260245ffd5b82346100da576101007ffffffffffffffffffffffffffffffffffffffffffffffffffffffffffffffffc3601126100da5773ffffffffffffffffffffffffffffffffffffffff90816064351633036102ca5760e43563ffffffff8160e01c91831c16810180911161029e57421061027657610162826102636108cb565b60a435908060443516906084351661097c565b9050517f6f7eac26000000000000000000000000000000000000000000000000000000008152fd5b6011847f4e487b71000000000000000000000000000000000000000000000000000000005f525260245ffd5b9050517f48f5c3ed000000000000000000000000000000000000000000000000000000008152fd5b82346100da576101407ffffffffffffffffffffffffffffffffffffffffffffffffffffffffffffffffc3601126100da5781359160243573ffffffffffffffffffffffffffffffffffffffff9182821682036100da576101007fffffffffffffffffffffffffffffffffffffffffffffffffffffffffffffffbc3601126100da57845f5260205f2060643580910361040157855f5260205f20036103da577f0ce781a18c10c8289803c7c4cfd532d797113c4b41c9701ffad7d0a632ac555b602086866103c660e4358760c4358a1661097c565b6103d36101043533610a14565b51908152a1005b83517fabab6bd7000000000000000000000000000000000000000000000000000000008152fd5b5083517fabab6bd7000000000000000000000000000000000000000000000000000000008152fd5b82346100da576101407ffffffffffffffffffffffffffffffffffffffffffffffffffffffffffffffffc3601126100da57813573ffffffffffffffffffffffffffffffffffffffff8082168092036100da5760243590610100807fffffffffffffffffffffffffffffffffffffffffffffffffffffffffffffffbc3601126100da578160a4351633036105ee57600b60559186518160448237208651907f00000000000000000000000000000000000000000000000000000000000000008883015260208201527f000000000000000000000000000000000000000000000000000000000000000081520160ff8153201630036105c6576101243560e01c7f000000000000000000000000000000000000000000000000000000000000000001421061059e577fc4474c2790e13695f6d2b6f1d8e164290b55370f87a542fd7711abe0a1bf40ac93508161058e576105818133610a14565b82519182526020820152a1005b61059981338461097c565b610581565b5050517f6f7eac26000000000000000000000000000000000000000000000000000000008152fd5b5050517fa269484a000000000000000000000000000000000000000000000000000000008152fd5b8585517f48f5c3ed000000000000000000000000000000000000000000000000000000008152fd5b82346100da575f7ffffffffffffffffffffffffffffffffffffffffffffffffffffffffffffffffc3601126100da57602090517f00000000000000000000000000000000000000000000000000000000000000008152f35b82346100da575f7ffffffffffffffffffffffffffffffffffffffffffffffffffffffffffffffffc3601126100da576020905173ffffffffffffffffffffffffffffffffffffffff7f0000000000000000000000000000000000000000000000000000000000000000168152f35b82346100da576106eb3661086c565b9092835f5260205f20602083013580910361078f57845f5260205f2003610768577f0ce781a18c10c8289803c7c4cfd532d797113c4b41c9701ffad7d0a632ac555b602085856103d360c08761076060a08201353373ffffffffffffffffffffffffffffffffffffffff60808501351661097c565b013533610a14565b82517fabab6bd7000000000000000000000000000000000000000000000000000000008152fd5b5082517fabab6bd7000000000000000000000000000000000000000000000000000000008152fd5b8390346100da576107c73661086c565b919093845f5260205f20916020840135809303610847575073ffffffffffffffffffffffffffffffffffffffff91855f5260205f20036103da577f0ce781a18c10c8289803c7c4cfd532d797113c4b41c9701ffad7d0a632ac555b602086866103d360c08861076060a082013560608301358b1660808401358c1661097c565b7fabab6bd7000000000000000000000000000000000000000000000000000000008152fd5b906101207ffffffffffffffffffffffffffffffffffffffffffffffffffffffffffffffffc8301126100da576101007fffffffffffffffffffffffffffffffffffffffffffffffffffffffffffffffdc6004359301126100da57602490565b73ffffffffffffffffffffffffffffffffffffffff6055600b60405161010090816004823720604051907f0000000000000000000000000000000000000000000000000000000000000000604083015260208201527f000000000000000000000000000000000000000000000000000000000000000081520160ff81532016300361095257565b60046040517fa269484a000000000000000000000000000000000000000000000000000000008152fd5b9160446020925f92604051917fa9059cbb0000000000000000000000000000000000000000000000000000000083526004830152602482015282855af190816109f2575b50156109c857565b60046040517ffb7f5079000000000000000000000000000000000000000000000000000000008152fd5b90503d15610a0c575060015f5114601f3d11165b5f6109c0565b3b1515610a06565b5f80809381935af13d15610adb5767ffffffffffffffff3d818111610aae5760405191601f82017fffffffffffffffffffffffffffffffffffffffffffffffffffffffffffffffe0908116603f0116830190811183821017610aae5760405281525f60203d92013e5b15610a8457565b60046040517f8a0332d5000000000000000000000000000000000000000000000000000000008152fd5b7f4e487b71000000000000000000000000000000000000000000000000000000005f52604160045260245ffd5b610a7d56fea2646970667358221220ecfbbe370a7cbf42c2e15ccc13f42edebf1d7e17bf6757914aff58988dce610064736f6c6343000817003360c03461013057601f61121f38819003918201601f19168301916001600160401b03831184841017610134578084926060946040528339810103126101305780516001600160a01b03808216820361013057602083015192818416908185036101305760400151828116809103610130578015610118575f80546001600160a01b03198116831782556040519416907f8be0079c531659141344cd1fd0a4f28419497f9722a3daafe3b4186f6b6457e09080a315610109575060a0526080526040516110d6908161014982396080518181816102eb015281816108d401528181610d8f0152610e0e015260a0518181816102b8015281816106d701528181610d310152610ee40152f35b63d92e233d60e01b8152600490fd5b604051631e4fbdf760e01b81525f6004820152602490fd5b5f80fd5b634e487b7160e01b5f52604160045260245ffdfe604060808152600480361015610013575f80fd5b5f3560e01c8063205c2878146108345780632e1a7d4d146107f65780632f4f21e2146107b057806332d323a5146107475780635886216f14610652578063715018a6146105b857806378e3214f146104295780638da5cb5b146103d857806397a2cb6414610225578063b6b55f25146101e7578063bfe91734146101835763f2fde38b1461009f575f80fd5b3461017f5760207ffffffffffffffffffffffffffffffffffffffffffffffffffffffffffffffffc36011261017f576100d661087a565b906100df610fb8565b73ffffffffffffffffffffffffffffffffffffffff8092169283156101505750505f54827fffffffffffffffffffffffff00000000000000000000000000000000000000008216175f55167f8be0079c531659141344cd1fd0a4f28419497f9722a3daafe3b4186f6b6457e05f80a3005b905f60249251917f1e4fbdf7000000000000000000000000000000000000000000000000000000008352820152fd5b5f80fd5b50903461017f57807ffffffffffffffffffffffffffffffffffffffffffffffffffffffffffffffffc36011261017f5760243567ffffffffffffffff811161017f576020926101d86101e0923690830161089d565b9135336108cb565b9051908152f35b50903461017f5760207ffffffffffffffffffffffffffffffffffffffffffffffffffffffffffffffffc36011261017f576101e06020923533610de9565b503461017f57602091827ffffffffffffffffffffffffffffffffffffffffffffffffffffffffffffffffc36011261017f57813567ffffffffffffffff80821161017f573660238301121561017f578184013590811161017f5760059360243683871b850182011161017f57949061029b610fb8565b5f955f9473ffffffffffffffffffffffffffffffffffffffff90817f000000000000000000000000000000000000000000000000000000000000000016945b868810610315578a8a8a61030f82337f0000000000000000000000000000000000000000000000000000000000000000611008565b51908152f35b9091929394959698848a831b840101359084821680920361017f575f8281526001808e52908b9020548b517f5886216f000000000000000000000000000000000000000000000000000000008152808a0185905293918e858a818e5afa9283156103ce578f905f9461039e575b600196505f5252818c5f205503019901969594939291906102da565b935085813d83116103c7575b6103b48183610c84565b8101031261017f578e6001955193610382565b503d6103aa565b8d513d5f823e3d90fd5b823461017f575f7ffffffffffffffffffffffffffffffffffffffffffffffffffffffffffffffffc36011261017f5760209073ffffffffffffffffffffffffffffffffffffffff5f54169051908152f35b50903461017f57807ffffffffffffffffffffffffffffffffffffffffffffffffffffffffffffffffc36011261017f57813573ffffffffffffffffffffffffffffffffffffffff81169081810361017f5760243591610486610fb8565b8261048d57005b801590811561059a575b50156105895750804710610562575f8080809333611388f13d1561055d573d67ffffffffffffffff8111610531578251906104fa60207fffffffffffffffffffffffffffffffffffffffffffffffffffffffffffffffe0601f8401160183610c84565b81525f60203d92013e5b1561050b57005b517fb12d13eb000000000000000000000000000000000000000000000000000000008152fd5b6041847f4e487b71000000000000000000000000000000000000000000000000000000005f525260245ffd5b610504565b50517ff4d678b8000000000000000000000000000000000000000000000000000000008152fd5b90915061059892503390611008565b005b73eeeeeeeeeeeeeeeeeeeeeeeeeeeeeeeeeeeeeeee9150145f610497565b3461017f575f7ffffffffffffffffffffffffffffffffffffffffffffffffffffffffffffffffc36011261017f576105ee610fb8565b5f73ffffffffffffffffffffffffffffffffffffffff81547fffffffffffffffffffffffff000000000000000000000000000000000000000081168355167f8be0079c531659141344cd1fd0a4f28419497f9722a3daafe3b4186f6b6457e08280a3005b503461017f57602091827ffffffffffffffffffffffffffffffffffffffffffffffffffffffffffffffffc36011261017f578261068d61087a565b602473ffffffffffffffffffffffffffffffffffffffff9182855196879485937f5886216f00000000000000000000000000000000000000000000000000000000855216908301527f0000000000000000000000000000000000000000000000000000000000000000165afa91821561073d575f9261070e575b5051908152f35b9091508281813d8311610736575b6107268183610c84565b8101031261017f5751905f610707565b503d61071c565b50513d5f823e3d90fd5b50903461017f5760607ffffffffffffffffffffffffffffffffffffffffffffffffffffffffffffffffc36011261017f5761078061087a565b916044359267ffffffffffffffff841161017f576107a66101e09260209536910161089d565b91602435906108cb565b823461017f57807ffffffffffffffffffffffffffffffffffffffffffffffffffffffffffffffffc36011261017f576020906101e06107ed61087a565b60243590610de9565b50903461017f5760207ffffffffffffffffffffffffffffffffffffffffffffffffffffffffffffffffc36011261017f576101e06020923533610cf2565b823461017f57807ffffffffffffffffffffffffffffffffffffffffffffffffffffffffffffffffc36011261017f576020906101e061087161087a565b60243590610cf2565b6004359073ffffffffffffffffffffffffffffffffffffffff8216820361017f57565b9181601f8401121561017f5782359167ffffffffffffffff831161017f576020838186019501011161017f57565b925f91929082917f000000000000000000000000000000000000000000000000000000000000000091604051918180606414610bce5780604814610b0c578060e014610ad3578061010014610a9857806060146109c25761016014610978578185926004927f9fd5a6cf0000000000000000000000000000000000000000000000000000000086528386013701925af15b1561096d5761096a91610de9565b90565b6040513d5f823e3d90fd5b610164935061016091507f2b67b5700000000000000000000000000000000000000000000000000000000083526004830137826e22d473030f116ddee9f6b43ac78ba35af161095c565b5060209150604090610164947f2b67b570000000000000000000000000000000000000000000000000000000008552336004860152602485015260148160508601377fffffffffffffffffffffffffffffffffffffffffffffffffffffffffffffffff65ffffffffffff9080601484013560e01c0182166064870152601883013560e01c60848701523060a4870152601c83013560e01c011660c485015261010060e4850152816101048501528280820161012486013701610144830137826e22d473030f116ddee9f6b43ac78ba35af161095c565b5084915092610100610104947f8fcbaf0c00000000000000000000000000000000000000000000000000000000855260048501375af161095c565b508491509260e060e4947fd505accf00000000000000000000000000000000000000000000000000000000855260048501375af161095c565b50849150927f7fffffffffffffffffffffffffffffffffffffffffffffffffffffffffffffff610104947f8fcbaf0c00000000000000000000000000000000000000000000000000000000855233600486015230602486015260206008602883013592803560e01c60448901527fffffffffffffffffffffffffffffffffffffffffffffffffffffffffffffffff600482013560e01c016064890152600160848901528360ff1c601b0160a48901520160c48701371660e48401525af161095c565b50849150927f7fffffffffffffffffffffffffffffffffffffffffffffffffffffffffffffff60e4947fd505accf00000000000000000000000000000000000000000000000000000000855233600486015230602486015260206024604483013592828160448a01377fffffffffffffffffffffffffffffffffffffffffffffffffffffffffffffffff8382013560e01c0160648901528360ff1c601b0160848901520160a48701371660c48401525af161095c565b90601f7fffffffffffffffffffffffffffffffffffffffffffffffffffffffffffffffe0910116810190811067ffffffffffffffff821117610cc557604052565b7f4e487b71000000000000000000000000000000000000000000000000000000005f52604160045260245ffd5b6040517f85eda2de000000000000000000000000000000000000000000000000000000008152336004820152602481018390529092916020826044815f7f000000000000000000000000000000000000000000000000000000000000000073ffffffffffffffffffffffffffffffffffffffff165af1801561096d575f90610db5575b610db3925093335f52600160205260405f208281540390557f0000000000000000000000000000000000000000000000000000000000000000611008565b565b506020823d602011610de1575b81610dcf60209383610c84565b8101031261017f57610db39151610d75565b3d9150610dc2565b73ffffffffffffffffffffffffffffffffffffffff91828216908115610f8e576064937f00000000000000000000000000000000000000000000000000000000000000006040517f23b872dd0000000000000000000000000000000000000000000000000000000081523360048201523060248201528360448201525f602097889282855af19081610f6c575b5015610f42575f928352600185526040808420805484019055517f3ee5ef1f00000000000000000000000000000000000000000000000000000000815273ffffffffffffffffffffffffffffffffffffffff94909416600485015260248401919091528391839160449183917f0000000000000000000000000000000000000000000000000000000000000000165af191821561096d575f92610f1857505090565b90809250813d8311610f3b575b610f2f8183610c84565b8101031261017f575190565b503d610f25565b60046040517ff4059071000000000000000000000000000000000000000000000000000000008152fd5b90503d15610f86575060015f5114601f3d11165b5f610e76565b3b1515610f80565b60046040517fd92e233d000000000000000000000000000000000000000000000000000000008152fd5b73ffffffffffffffffffffffffffffffffffffffff5f54163303610fd857565b60246040517f118cdaa7000000000000000000000000000000000000000000000000000000008152336004820152fd5b9160446020925f92604051917fa9059cbb0000000000000000000000000000000000000000000000000000000083526004830152602482015282855af1908161107e575b501561105457565b60046040517ffb7f5079000000000000000000000000000000000000000000000000000000008152fd5b90503d15611098575060015f5114601f3d11165b5f61104c565b3b151561109256fea2646970667358221220daeaafc591a374d885bfa2ca9d12c58ca8dc76f3008569822cf96c4211fb6eb564736f6c63430008170033","linkReferences":{}},"methodIdentifiers":{"ESCROW_DST_IMPLEMENTATION()":"ba551177","ESCROW_SRC_IMPLEMENTATION()":"7040f173","FEE_BANK()":"2ce26aeb","addressOfEscrowDst((bytes32,bytes32,uint256,uint256,uint256,uint256,uint256,uint256))":"be58e91c","addressOfEscrowSrc((bytes32,bytes32,uint256,uint256,uint256,uint256,uint256,uint256))":"fb6bd47e","availableCredit(address)":"5886216f","cancel(address,(bytes32,bytes32,uint256,uint256,uint256,uint256,uint256,uint256))":"a4fc705a","createDstEscrow((bytes32,bytes32,uint256,uint256,uint256,uint256,uint256,uint256),uint256)":"dea024e4","createSrcEscrow((bytes32,bytes32,uint256,uint256,uint256,uint256,uint256,uint256))":"c3a28841","decreaseAvailableCredit(address,uint256)":"85eda2de","getMakingAmount((uint256,uint256,uint256,uint256,uint256,uint256,uint256,uint256),bytes,bytes32,address,uint256,uint256,bytes)":"1d9671c3","getTakingAmount((uint256,uint256,uint256,uint256,uint256,uint256,uint256,uint256),bytes,bytes32,address,uint256,uint256,bytes)":"d7ff8a80","increaseAvailableCredit(address,uint256)":"3ee5ef1f","lastValidated(bytes32)":"acf4ce5c","postInteraction((uint256,uint256,uint256,uint256,uint256,uint256,uint256,uint256),bytes,bytes32,address,uint256,uint256,uint256,bytes)":"462ebde2","preInteraction((uint256,uint256,uint256,uint256,uint256,uint256,uint256,uint256),bytes,bytes32,address,uint256,uint256,uint256,bytes)":"0986bdd5","takerInteraction((uint256,uint256,uint256,uint256,uint256,uint256,uint256,uint256),bytes,bytes32,address,uint256,uint256,uint256,bytes)":"adf38ba1","withdraw(address,bytes32,(bytes32,bytes32,uint256,uint256,uint256,uint256,uint256,uint256))":"2c3c9a37"},"storageLayout":{"storage":[{"astId":3780,"contract":"contracts/src/TestEscrowFactory.sol:TestEscrowFactory","label":"_creditAllowance","offset":0,"slot":"0","type":"t_mapping(t_address,t_uint256)"},{"astId":1574,"contract":"contracts/src/TestEscrowFactory.sol:TestEscrowFactory","label":"lastValidated","offset":0,"slot":"1","type":"t_mapping(t_bytes32,t_struct(ValidationData)2004_storage)"}],"types":{"t_address":{"encoding":"inplace","label":"address","numberOfBytes":"20"},"t_bytes32":{"encoding":"inplace","label":"bytes32","numberOfBytes":"32"},"t_mapping(t_address,t_uint256)":{"encoding":"mapping","key":"t_address","label":"mapping(address => uint256)","numberOfBytes":"32","value":"t_uint256"},"t_mapping(t_bytes32,t_struct(ValidationData)2004_storage)":{"encoding":"mapping","key":"t_bytes32","label":"mapping(bytes32 => struct IMerkleStorageInvalidator.ValidationData)","numberOfBytes":"32","value":"t_struct(ValidationData)2004_storage"},"t_struct(ValidationData)2004_storage":{"encoding":"inplace","label":"struct IMerkleStorageInvalidator.ValidationData","numberOfBytes":"64","members":[{"astId":2001,"contract":"contracts/src/TestEscrowFactory.sol:TestEscrowFactory","label":"index","offset":0,"slot":"0","type":"t_uint256"},{"astId":2003,"contract":"contracts/src/TestEscrowFactory.sol:TestEscrowFactory","label":"leaf","offset":0,"slot":"1","type":"t_bytes32"}]},"t_uint256":{"encoding":"inplace","label":"uint256","numberOfBytes":"32"}}},"id":56}