{"abi":[{"type":"constructor","inputs":[{"name":"rescueDelay","type":"uint32","internalType":"uint32"}],"stateMutability":"nonpayable"},{"type":"function","name":"FACTORY","inputs":[],"outputs":[{"name":"","type":"address","internalType":"address"}],"stateMutability":"view"},{"type":"function","name":"PROXY_BYTECODE_HASH","inputs":[],"outputs":[{"name":"","type":"bytes32","internalType":"bytes32"}],"stateMutability":"view"},{"type":"function","name":"RESCUE_DELAY","inputs":[],"outputs":[{"name":"","type":"uint256","internalType":"uint256"}],"stateMutability":"view"},{"type":"function","name":"cancel","inputs":[{"name":"immutables","type":"tuple","internalType":"struct IBaseEscrow.Immutables","components":[{"name":"orderHash","type":"bytes32","internalType":"bytes32"},{"name":"hashlock","type":"bytes32","internalType":"bytes32"},{"name":"maker","type":"uint256","internalType":"Address"},{"name":"taker","type":"uint256","internalType":"Address"},{"name":"token","type":"uint256","internalType":"Address"},{"name":"amount","type":"uint256","internalType":"uint256"},{"name":"safetyDeposit","type":"uint256","internalType":"uint256"},{"name":"timelocks","type":"uint256","internalType":"Timelocks"}]}],"outputs":[],"stateMutability":"nonpayable"},{"type":"function","name":"publicCancel","inputs":[{"name":"immutables","type":"tuple","internalType":"struct IBaseEscrow.Immutables","components":[{"name":"orderHash","type":"bytes32","internalType":"bytes32"},{"name":"hashlock","type":"bytes32","internalType":"bytes32"},{"name":"maker","type":"uint256","internalType":"Address"},{"name":"taker","type":"uint256","internalType":"Address"},{"name":"token","type":"uint256","internalType":"Address"},{"name":"amount","type":"uint256","internalType":"uint256"},{"name":"safetyDeposit","type":"uint256","internalType":"uint256"},{"name":"timelocks","type":"uint256","internalType":"Timelocks"}]}],"outputs":[],"stateMutability":"nonpayable"},{"type":"function","name":"publicWithdraw","inputs":[{"name":"secret","type":"bytes32","internalType":"bytes32"},{"name":"immutables","type":"tuple","internalType":"struct IBaseEscrow.Immutables","components":[{"name":"orderHash","type":"bytes32","internalType":"bytes32"},{"name":"hashlock","type":"bytes32","internalType":"bytes32"},{"name":"maker","type":"uint256","internalType":"Address"},{"name":"taker","type":"uint256","internalType":"Address"},{"name":"token","type":"uint256","internalType":"Address"},{"name":"amount","type":"uint256","internalType":"uint256"},{"name":"safetyDeposit","type":"uint256","internalType":"uint256"},{"name":"timelocks","type":"uint256","internalType":"Timelocks"}]}],"outputs":[],"stateMutability":"nonpayable"},{"type":"function","name":"rescueFunds","inputs":[{"name":"token","type":"address","internalType":"address"},{"name":"amount","type":"uint256","internalType":"uint256"},{"name":"immutables","type":"tuple","internalType":"struct IBaseEscrow.Immutables","components":[{"name":"orderHash","type":"bytes32","internalType":"bytes32"},{"name":"hashlock","type":"bytes32","internalType":"bytes32"},{"name":"maker","type":"uint256","internalType":"Address"},{"name":"taker","type":"uint256","internalType":"Address"},{"name":"token","type":"uint256","internalType":"Address"},{"name":"amount","type":"uint256","internalType":"uint256"},{"name":"safetyDeposit","type":"uint256","internalType":"uint256"},{"name":"timelocks","type":"uint256","internalType":"Timelocks"}]}],"outputs":[],"stateMutability":"nonpayable"},{"type":"function","name":"withdraw","inputs":[{"name":"secret","type":"bytes32","internalType":"bytes32"},{"name":"immutables","type":"tuple","internalType":"struct IBaseEscrow.Immutables","components":[{"name":"orderHash","type":"bytes32","internalType":"bytes32"},{"name":"hashlock","type":"bytes32","internalType":"bytes32"},{"name":"maker","type":"uint256","internalType":"Address"},{"name":"taker","type":"uint256","internalType":"Address"},{"name":"token","type":"uint256","internalType":"Address"},{"name":"amount","type":"uint256","internalType":"uint256"},{"name":"safetyDeposit","type":"uint256","internalType":"uint256"},{"name":"timelocks","type":"uint256","internalType":"Timelocks"}]}],"outputs":[],"stateMutability":"nonpayable"},{"type":"function","name":"withdrawTo","inputs":[{"name":"secret","type":"bytes32","internalType":"bytes32"},{"name":"target","type":"address","internalType":"address"},{"name":"immutables","type":"tuple","internalType":"struct IBaseEscrow.Immutables","components":[{"name":"orderHash","type":"bytes32","internalType":"bytes32"},{"name":"hashlock","type":"bytes32","internalType":"bytes32"},{"name":"maker","type":"uint256","internalType":"Address"},{"name":"taker","type":"uint256","internalType":"Address"},{"name":"token","type":"uint256","internalType":"Address"},{"name":"amount","type":"uint256","internalType":"uint256"},{"name":"safetyDeposit","type":"uint256","internalType":"uint256"},{"name":"timelocks","type":"uint256","internalType":"Timelocks"}]}],"outputs":[],"stateMutability":"nonpayable"},{"type":"event","name":"EscrowCancelled","inputs":[],"anonymous":false},{"type":"event","name":"FundsRescued","inputs":[{"name":"token","type":"address","indexed":false,"internalType":"address"},{"name":"amount","type":"uint256","indexed":false,"internalType":"uint256"}],"anonymous":false},{"type":"event","name":"Withdrawal","inputs":[{"name":"secret","type":"bytes32","indexed":false,"internalType":"bytes32"}],"anonymous":false},{"type":"error","name":"InvalidCaller","inputs":[]},{"type":"error","name":"InvalidImmutables","inputs":[]},{"type":"error","name":"InvalidSecret","inputs":[]},{"type":"error","name":"InvalidTime","inputs":[]},{"type":"error","name":"NativeTokenSendingFailure","inputs":[]},{"type":"error","name":"SafeTransferFailed","inputs":[]}],"bytecode":{"object":"0x60e0346100de57601f610c0d38819003918201601f19168301916001600160401b038311848410176100e2578084926020946040528339810103126100de575163ffffffff81168091036100de573360a0526080526e5af43d82803e903d91602b57fd5bf360205230601152763d602d80600a3d3981f3363d3d373d3d3d363d730000003060881c175f52603760092060c052604051610b1690816100f7823960805181818160b70152610529015260a0518181816104f2015281816106b80152610922015260c0518181816104c80152818161064b01526108f70152f35b5f80fd5b634e487b7160e01b5f52604160045260245ffdfe6080604090808252600480361015610015575f80fd5b5f3560e01c9182630af97558146107b75750816323305703146106dc5781632dd310001461066e57816334862b6a146106165781634649088b146104295781636c10c0c8146102f257816390d3252f146101e6578163daff233e146100de575063f56cd69c14610083575f80fd5b346100da575f7ffffffffffffffffffffffffffffffffffffffffffffffffffffffffffffffffc3601126100da57602090517f00000000000000000000000000000000000000000000000000000000000000008152f35b5f80fd5b82346100da576101007ffffffffffffffffffffffffffffffffffffffffffffffffffffffffffffffffc3601126100da5760e43563ffffffff8160e01c9160601c1681018091116101ba574210610194576101376108cb565b61016273ffffffffffffffffffffffffffffffffffffffff60a435908060443516906084351661097c565b61016e60c43533610a14565b7f6e3be9294e58d10b9c8053cfd5e09871b67e442fe394d6b0870d336b9df984a95f80a1005b517f6f7eac26000000000000000000000000000000000000000000000000000000008152fd5b6011837f4e487b71000000000000000000000000000000000000000000000000000000005f525260245ffd5b82346100da576101007ffffffffffffffffffffffffffffffffffffffffffffffffffffffffffffffffc3601126100da5773ffffffffffffffffffffffffffffffffffffffff90816064351633036102ca5760e43563ffffffff8160e01c91831c16810180911161029e57421061027657610162826102636108cb565b60a435908060443516906084351661097c565b9050517f6f7eac26000000000000000000000000000000000000000000000000000000008152fd5b6011847f4e487b71000000000000000000000000000000000000000000000000000000005f525260245ffd5b9050517f48f5c3ed000000000000000000000000000000000000000000000000000000008152fd5b82346100da576101407ffffffffffffffffffffffffffffffffffffffffffffffffffffffffffffffffc3601126100da5781359160243573ffffffffffffffffffffffffffffffffffffffff9182821682036100da576101007fffffffffffffffffffffffffffffffffffffffffffffffffffffffffffffffbc3601126100da57845f5260205f2060643580910361040157855f5260205f20036103da577f0ce781a18c10c8289803c7c4cfd532d797113c4b41c9701ffad7d0a632ac555b602086866103c660e4358760c4358a1661097c565b6103d36101043533610a14565b51908152a1005b83517fabab6bd7000000000000000000000000000000000000000000000000000000008152fd5b5083517fabab6bd7000000000000000000000000000000000000000000000000000000008152fd5b82346100da576101407ffffffffffffffffffffffffffffffffffffffffffffffffffffffffffffffffc3601126100da57813573ffffffffffffffffffffffffffffffffffffffff8082168092036100da5760243590610100807fffffffffffffffffffffffffffffffffffffffffffffffffffffffffffffffbc3601126100da578160a4351633036105ee57600b60559186518160448237208651907f00000000000000000000000000000000000000000000000000000000000000008883015260208201527f000000000000000000000000000000000000000000000000000000000000000081520160ff8153201630036105c6576101243560e01c7f000000000000000000000000000000000000000000000000000000000000000001421061059e577fc4474c2790e13695f6d2b6f1d8e164290b55370f87a542fd7711abe0a1bf40ac93508161058e576105818133610a14565b82519182526020820152a1005b61059981338461097c565b610581565b5050517f6f7eac26000000000000000000000000000000000000000000000000000000008152fd5b5050517fa269484a000000000000000000000000000000000000000000000000000000008152fd5b8585517f48f5c3ed000000000000000000000000000000000000000000000000000000008152fd5b82346100da575f7ffffffffffffffffffffffffffffffffffffffffffffffffffffffffffffffffc3601126100da57602090517f00000000000000000000000000000000000000000000000000000000000000008152f35b82346100da575f7ffffffffffffffffffffffffffffffffffffffffffffffffffffffffffffffffc3601126100da576020905173ffffffffffffffffffffffffffffffffffffffff7f0000000000000000000000000000000000000000000000000000000000000000168152f35b82346100da576106eb3661086c565b9092835f5260205f20602083013580910361078f57845f5260205f2003610768577f0ce781a18c10c8289803c7c4cfd532d797113c4b41c9701ffad7d0a632ac555b602085856103d360c08761076060a08201353373ffffffffffffffffffffffffffffffffffffffff60808501351661097c565b013533610a14565b82517fabab6bd7000000000000000000000000000000000000000000000000000000008152fd5b5082517fabab6bd7000000000000000000000000000000000000000000000000000000008152fd5b8390346100da576107c73661086c565b919093845f5260205f20916020840135809303610847575073ffffffffffffffffffffffffffffffffffffffff91855f5260205f20036103da577f0ce781a18c10c8289803c7c4cfd532d797113c4b41c9701ffad7d0a632ac555b602086866103d360c08861076060a082013560608301358b1660808401358c1661097c565b7fabab6bd7000000000000000000000000000000000000000000000000000000008152fd5b906101207ffffffffffffffffffffffffffffffffffffffffffffffffffffffffffffffffc8301126100da576101007fffffffffffffffffffffffffffffffffffffffffffffffffffffffffffffffdc6004359301126100da57602490565b73ffffffffffffffffffffffffffffffffffffffff6055600b60405161010090816004823720604051907f0000000000000000000000000000000000000000000000000000000000000000604083015260208201527f000000000000000000000000000000000000000000000000000000000000000081520160ff81532016300361095257565b60046040517fa269484a000000000000000000000000000000000000000000000000000000008152fd5b9160446020925f92604051917fa9059cbb0000000000000000000000000000000000000000000000000000000083526004830152602482015282855af190816109f2575b50156109c857565b60046040517ffb7f5079000000000000000000000000000000000000000000000000000000008152fd5b90503d15610a0c575060015f5114601f3d11165b5f6109c0565b3b1515610a06565b5f80809381935af13d15610adb5767ffffffffffffffff3d818111610aae5760405191601f82017fffffffffffffffffffffffffffffffffffffffffffffffffffffffffffffffe0908116603f0116830190811183821017610aae5760405281525f60203d92013e5b15610a8457565b60046040517f8a0332d5000000000000000000000000000000000000000000000000000000008152fd5b7f4e487b71000000000000000000000000000000000000000000000000000000005f52604160045260245ffd5b610a7d56fea2646970667358221220ecfbbe370a7cbf42c2e15ccc13f42edebf1d7e17bf6757914aff58988dce610064736f6c63430008170033","linkReferences":{}},"methodIdentifiers":{"FACTORY()":"2dd31000","PROXY_BYTECODE_HASH()":"34862b6a","RESCUE_DELAY()":"f56cd69c","cancel((bytes32,bytes32,uint256,uint256,uint256,uint256,uint256,uint256))":"90d3252f","publicCancel((bytes32,bytes32,uint256,uint256,uint256,uint256,uint256,uint256))":"daff233e","publicWithdraw(bytes32,(bytes32,bytes32,uint256,uint256,uint256,uint256,uint256,uint256))":"0af97558","rescueFunds(address,uint256,(bytes32,bytes32,uint256,uint256,uint256,uint256,uint256,uint256))":"4649088b","withdraw(bytes32,(bytes32,bytes32,uint256,uint256,uint256,uint256,uint256,uint256))":"23305703","withdrawTo(bytes32,address,(bytes32,bytes32,uint256,uint256,uint256,uint256,uint256,uint256))":"6c10c0c8"},"storageLayout":{"storage":[],"types":{}},"id":6}